S01200004465736B204C696768742E7372656373
S113000012C087C22BC02AC029C028C0E3C126C0A1
S113001025C024C023C022C021C020C01FC01EC0D0
S11300201DC01CC01BC011241FBECFE5D4E0DEBF21
S1130030CDBF10E0A0E6B0E0E2EEF9E002C005902A
S11300400D92A436B107D9F720E0A4E6B0E001C0D0
S11300501D92AE3FB207E1F739D1C1C4D1CF28B365
S1130060342F3095232338B3432B3FB7F894FC0146
S1130070680F791FE617F707E1F0819198E048BB14
S113008087FF28BB880F000000C028BB000000C009
S113009000C000C000C000C000C000C000C000C05C
S11300A000C000C000C000C000C000C09A9539F76D
S11300B0E1CF3FBF089527B3242B27BB9B01220F19
S11300C0331F620F731FCBDF85E88A95F1F70000B9
S11300D0089541E0F0CF8A98B89A08958EB58B6060
S11300E08EBD89B7806189BF8CE790E09BBD8ABDD6
S11300F0089585B7816085BF8BB780648BBF0895F1
S11301008F929F92AF92BF92CF92DF92EF92FF9223
S11301100F931F93CF93DF93CDB7DEB7C758D109A1
S11301200FB6F894DEBF0FBECDBF6B017C0120E09B
S113013030E040E85FE3CBD3181664F020E030E011
S1130140A901C701B601E1D287FF0AC0C12CD12C95
S1130150760106C0C12CD12C90E8E92E9FE3F92E3C
S113016000E010E0C8018B589F4F4C01AA24A394CF
S1130170B12CAC0EBD1EA00EB11EF401618170E065
S113018080E090E0F4D2A7019601A5D3C2D2F50194
S11301906183F401608170E080E090E0E8D2A7011F
S11301A0960199D3B6D2F5016083F401628170E0BF
S11301B080E090E0DCD2A70196018DD3AAD2F501AC
S11301C062830D5F1F4F0738110561F66DE270E021
S11301D0CE0101967EDFC957DF4F0FB6F894DEBF1C
S11301E00FBECDBFDF91CF911F910F91FF90EF9084
S11301F0DF90CF90BF90AF909F908F9008958F9293
S11302009F92AF92BF92CF92DF92EF92FF92C12C56
S1130210D12C76018090600090906100A0906200E3
S1130220B0906300A5019401C701B6016ED21816FF
S11302309CF0C701B60164DF8FE99FE00197F1F7F5
S113024000C000002AE037ED43E25CE3C701B601D9
S1130250F8D16B017C01DECFC501B401FF90EF90B2
S1130260DF90CF90BF90AF909F908F9049CFCF9267
S1130270DF92EF92FF92C0906000D0906100E09016
S11302806200F090630020E030E0A901C701B601EC
S11302901ED318169CF4C701B60132DF8FE99FE024
S11302A00197F1F700C000002AE037ED43E25CE378
S11302B0C701B601C5D16B017C01E5CF60E070E0F8
S11302C0CB01FF90EF90DF90CF901ACFF89480E0AD
S11302D090E0FC01EB58FF4F1182108212820396CA
S11302E087389105B1F7F7DEF9DE03DF80E090E0AF
S11302F03FEF24E6FC01EB58FF4F31832083128249
S1130300039687389105B1F760E070E0CB01F8DE21
S11303107894C3E080916C00823089F038F48823AB
S113032051F0813009F053C0A2DF51C0833059F03D
S1130330843099F04CC060E070E0CB010CC05FDF0A
S1130340C0936C00E7CF6091600070916100809170
S1130350620090916300D4DEDDCF2DEC3CEC4CE4E4
S11303605DE3609160007091610080916200909102
S1130370630067D16B017C0120E030E040E85FE37B
S1130380A6D218164CF0C0926000D0926100E092A0
S11303906200F092630008C0109260001092610045
S11303A0109262001092630060916000709161008D
S11303B08091620090916300A3DE2FEF80E792E0CA
S11303C0215080409040E1F700C00000A3CF10927C
S11303D06C00A0CF1F920F920FB60F9211248F9230
S11303E09F92AF92BF92CF92DF92EF92FF920F93C0
S11303F01F932F933F934F935F936F937F938F93A9
S11304009F93AF93BF93CF93DF93EF93FF93209189
S11304106D0030916E0040916F00509170006091BA
S11304207100709172008091730090917400A1E04A
S1130430B5D220936D0030936E0040936F005093BB
S113044070006093710070937200809373009093B6
S1130450740020916D0030916E0040916F005091B6
S1130460700060917100709172008091730090919E
S113047074008090640090906500D0916600C091F3
S11304806700B0916800A0916900F0916A00E09162
S11304906B005401CD2EDC2EEB2EFA2E0F2F1E2FC7
S11304A089D22F3C3740410551056105710581050D
S11304B0910591F088F094014D2F5C2F6B2F7A2FCA
S11304C08F2F9E2FA0E07FD239F080916C00833073
S11304D019F484E080936C00FF91EF91DF91CF9148
S11304E0BF91AF919F918F917F916F915F914F9148
S11304F03F912F911F910F91FF90EF90DF90CF903C
S1130500BF90AF909F908F900F900FBE0F901F9051
S113051018951F920F920FB60F921124AF92BF92AB
S1130520CF92DF92EF92FF920F931F932F933F93FB
S11305304F935F936F937F938F939F93EF93829BDC
S113054021C070916D0060916E0050916F004091D8
S1130550700030917100209172009091730080912D
S11305607400709364006093650050936600409338
S11305706700309368002093690090936A00809329
S11305806B0048C020916D0030916E0040916F0067
S113059050917000609171007091720080917300AD
S11305A090917400A0906400B0906500C0906600C3
S11305B0D0906700E0906800F090690000916A00B4
S11305C010916B00F7D12F3C37404105510561056F
S11305D071058105910509F050F480916C00811139
S11305E002C082E005C0833029F481E001C083E0C9
S11305F080936C0010926400109265001092660063
S113060010926700109268001092690010926A00BC
S113061010926B00EF919F918F917F916F915F91F9
S11306204F913F912F911F910F91FF90EF90DF9089
S1130630CF90BF90AF900F900FBE0F901F90189562
S11306405058BB27AA270ED008C1F9D030F0FED0ED
S113065020F031F49F3F11F41EF4EEC00EF4E09547
S1130660E7FBE4C0E92F0AD180F3BA1762077307E6
S11306708407950718F071F49EF522C10EF4E095F5
S11306800B2EBA2FA02D0B01B90190010C01CA0148
S1130690A0011124FF27591B99F0593F50F4503EF3
S11306A068F11A16F040A22F232F342F4427585FE5
S11306B0F3CF469537952795A795F0405395C9F7FD
S11306C07EF41F16BA0B620B730B840BBAF09150B5
S11306D0A1F0FF0FBB1F661F771F881FC2F70EC054
S11306E0BA0F621F731F841F48F487957795679527
S11306F0B795F7959E3F08F0B3CF9395880F08F010
S11307009927EE0F9795879508956CD008F481E0AA
S11307100895BCD088F09F5790F0B92F9927B7510E
S1130720A0F0D1F0660F771F881F991F1AF0BA95B1
S1130730C9F712C0B13081F0C3D0B1E00895C0C090
S1130740672F782F8827B85F39F0B93FCCF38695A7
S113075077956795B395D9F73EF490958095709504
S113076061957F4F8F4F9F4F0895E89409C097FB81
S11307703EF490958095709561957F4F8F4F9F4F74
S11307809923A9F0F92F96E9BB279395F6958795B8
S113079077956795B795F111F8CFFAF4BB0F11F47B
S11307A060FF1BC06F5F7F4F8F4F9F4F16C0882322
S11307B011F096E911C0772321F09EE8872F762F58
S11307C005C0662371F096E8862F70E060E02AF099
S11307D09A95660F771F881FDAF7880F9695879585
S11307E097F90895990F0008550FAA0BE0E8FEEF5A
S11307F016161706E807F907C0F012161306E407E1
S1130800F50798F0621B730B840B950B39F40A26D9
S113081061F0232B242B252B21F408950A2609F4B7
S1130820A140A6958FEF811D811D089597F99F67BB
S113083080E870E060E008959FEF80EC0895002464
S11308400A941616170618060906089500240A9431
S113085012161306140605060895092E0394000CB7
S113086011F4882352F0BB0F40F4BF2B11F460FF46
S113087004C06F5F7F4F8F4F9F4F089557FD90586F
S1130880440F551F59F05F3F71F04795880F97FB50
S1130890991F61F09F3F79F087950895121613060A
S11308A01406551FF2CF4695F1DF08C01616170639
S11308B01806991FF1CF869571056105089408956E
S11308C0E894BB2766277727CB0197F908958ADF39
S11308D008F48FEF08950BD0C0CFB1DF28F0B6DF56
S11308E018F0952309F0A2CFA7CF1124EACFC6DFD1
S11308F0A0F3959FD1F3950F50E0551F629FF0012F
S1130900729FBB27F00DB11D639FAA27F00DB11D87
S1130910AA1F649F6627B00DA11D661F829F222710
S1130920B00DA11D621F739FB00DA11D621F839F97
S1130930A00D611D221F749F3327A00D611D231F6D
S1130940849F600D211D822F762F6A2F11249F57BB
S113095050408AF0E1F088234AF0EE0FFF1FBB1FDE
S1130960661F771F881F91505040A9F79E3F51057D
S113097070F05CCFA6CF5F3FECF3983EDCF3869536
S113098077956795B795F795E7959F5FC1F7FE2B28
S1130990880F911D9695879597F908950024A7FDD2
S11309A000942A0F301D401D501D601D701D801DB8
S11309B0901D08952A193B094C095D096E097F09A8
S11309C0800B910B08950024A7FD00942A1730058D
S11309D04005500560057005800590050895F8945C
S10509E0FFCF43
S10709E20000803F4E
S9030000FC
