S01200004465736B204C696768742E7372656373
S113000012C041C32BC02AC029C028C09BC226C02D
S113001025C024C023C022C021C020C01FC01EC0D0
S11300201DC01CC01BC011241FBECFE5D4E0DEBF21
S1130030CDBF10E0A0E6B0E0EAE3F3E102C0059032
S11300400D92A03DB107D9F721E0A0EDB0E001C0C9
S11300501D92A037B207E1F7B3D16DC9D1CFCF93C9
S1130060C82F8A3011F48DE0FADF5D9BFECFCCB946
S113007080E090E0CF9108958F929F92AF92BF92CB
S1130080CF92DF92EF92FF920F931F93CF93DF9360
S1130090822E932ED42FC52FB62FA72FF82FE92FFA
S11300A02A2D3B2D4C2D5D2D6E2D7F2D802F912FD4
S11300B0889818E91AB904E018D6A82CB92CCD2EC2
S11300C0DC2EEB2EFA2E0F2F1E2FC3D5E22FAFEF0F
S11300D028D608E00AD620BDE150E9B988E18AB9FA
S11300E086E880BD80E690E090936D0180936C017A
S11300F0DF91CF911F910F91FF90EF90DF90CF9000
S1130100BF90AF909F908F900895B89A9B01220F53
S1130110331F620F731F28B32E7F38B331604FB77C
S1130120F8946115710509F421C0FC01680F791F69
S1130130919188E038BB97FF28BB990F000000C05D
S113014028BB000000C000C000C000C000C000C048
S113015000C000C000C000C000C000C000C000C09B
S113016000C08A9539F7E617F70711F74FBF85E8FE
S11301708A95F1F7000008958A98B89A08958EB583
S11301808B608EBD89B7806189BF8CE790E09BBD91
S11301908ABD089585B7816085BF8BB780648BBFA6
S11301A008954F925F926F927F92AF92BF92CF92D7
S11301B0DF92EF92FF920F931F93CF93DF93CDB70C
S11301C0DEB7C758D1090FB6F894DEBF0FBECDBF56
S11301D02B013C0120E030E040E85FE3D1D4181665
S11301E064F020E030E0A901C301B201E7D3882321
S11301F064F4412C512C320108C00F2E412C512C97
S1130200F0E86F2EFFE37F2EF02D0F2EF3EEEF2E8E
S1130210F0E0FF2EF02D8E010D5F1F4F5E018AE886
S1130220A80EB11C6801E1E0CE1AD108F70131979C
S1130230608170E080E090E0F3D3A3019201A4D444
S1130240C1D3F60160836801F2E0CF1AD108F70147
S11302503297608170E080E090E0E2D3A3019201E4
S113026093D4B0D3F6016083F701608170E080E03D
S113027090E0D6D3A301920187D4A4D3F80160837C
S1130280F3E0EF0EF11C0D5F1F4F0A151B0551F62D
S11302906DE270E0CE01019638DFC957DF4F0FB62B
S11302A0F894DEBF0FBECDBFDF91CF911F910F91A8
S11302B0FF90EF90DF90CF90BF90AF907F906F90C2
S11302C05F904F9008958F929F92AF92BF92CF927A
S11302D0DF92EF92FF9280906E0090906F00A0905A
S11302E07000B090710020E030E0A901C501B401B4
S11302F047D4882324F1C12CD12C7601C701B6013F
S113030050DF8FE99FE00197F1F700C000002AE079
S113031037ED43E25CE3C701B601ECD26B017C012B
S113032080906E0090906F00A0907000B09071006B
S11303309B01AC01C501B40123D48823FCF6C5019B
S1130340B4012FDFFF90EF90DF90CF90BF90AF907C
S11303509F908F900895CF92DF92EF92FF92C0907A
S11303606E00D0906F00E0907000F090710020E07B
S113037030E0A901C701B60103D41816C4F4C701BB
S1130380B6010FDF8FE99FE00197F1F700C000008D
S11303902AE037ED43E25CE3C701B601AAD26B0160
S11303A07C0120E030E0A901EBD3181644F360E0AF
S11303B070E0CB01F6DEFF90EF90DF90CF900895D0
S11303C0F894C3EED0E00F2EFAE68F2EF1E09F2EC4
S11303D0F02DFE01DF0111971C9211971C921082DF
S11303E03396E815F905B1F7C7DEC9DED3DEA12CD3
S11303F00F2EF2E1BF2EF02D0F2EFAE7CF2EF02DA7
S1130400D12CE12CF12C00E010E020E835E240E0B2
S113041050E060E070E080E090E02EDE9FEF84E644
S1130420FE01319790833197808318822396C815F3
S1130430D905B1F760E070E0CB01B3DE789482E7D0
S113044090E0A3D413E0CFE7D0E08091D8008230CD
S1130450A1F028F4882341F0813059F070C0833032
S113046081F08430C1F06BC060E070E0CB0199DEB4
S1130470ECCF71DF1092D800E8CF25DF1093D800BD
S1130480E4CF60916E0070916F0080917000909144
S1130490710087DEDACF2DEC3CEC4CE45DE3609137
S11304A06E0070916F00809170009091710022D263
S11304B06B017C0120E030E040E85FE361D3181673
S11304C04CF0C0926E00D0926F00E0927000F092F7
S11304D0710008C010926E0010926F0010927000AC
S11304E01092710060916E0070916F0080917000A5
S11304F09091710056DE20E030E048EC52E46091C7
S11305006E0070916F0080917000909171003CD3E7
S11305109F938F937F936F93DF93CF9323D49FEF16
S113052020E782E0915020408040E1F700C00000C5
S11305300F900F900F900F900F900F9086CF109206
S1130540D80083CF1F920F920FB60F9211248F926F
S11305509F92AF92BF92CF92DF92EF92FF920F934E
S11305601F932F933F934F935F936F937F938F9337
S11305709F93AF93BF93CF93DF93EF93FF93209118
S1130580D9003091DA004091DB005091DC00609199
S1130590DD007091DE008091DF009091E000A1E029
S11305A0C0D32093D9003093DA004093DB005093FA
S11305B0DC006093DD007093DE008093DF00909395
S11305C0E0002091D9003091DA004091DB00509195
S11305D0DC006091DD007091DE008091DF0090917D
S11305E0E0008090D0009090D100D091D200C091D2
S11305F0D300B091D400A091D500F091D600E09141
S1130600D700A82CB92CCD2EDC2EEB2EFA2E0F2FD2
S11306101E2F93D32F3C37404105510561057105C9
S11306208105910599F090F0282D392D4D2F5C2FDF
S11306306B2F7A2F8F2F9E2FA0E088D339F08091D3
S1130640D800833019F484E08093D800FF91EF91AF
S1130650DF91CF91BF91AF919F918F917F916F91D6
S11306605F914F913F912F911F910F91FF90EF90C8
S1130670DF90CF90BF90AF909F908F900F900FBE60
S11306800F901F9018951F920F920FB60F9211247E
S1130690AF92BF92CF92DF92EF92FF920F931F938C
S11306A02F933F934F935F936F937F938F939F9376
S11306B0AF93BF93EF93FF93829B46C08091D90081
S11306C09091DA002091DB003091DC004091DD0054
S11306D05091DE006091DF007091E0007F936F9392
S11306E05F934F933F932F939F938F9382E990E06F
S11306F09F938F9337D37091D9006091DA00509112
S1130700DB004091DC003091DD002091DE0090910F
S1130710DF008091E0007093D0006093D10050938B
S1130720D2004093D3003093D4002093D50090930B
S1130730D6008093D7008DB79EB70A960FB6F8946B
S11307409EBF0FBE8DBFBCC08091D9009091DA00CE
S11307502091DB003091DC004091DD005091DE00FF
S11307606091DF007091E0007F936F935F934F93EC
S11307703F932F939F938F9380EA90E09F938F935F
S1130780F1D28091D7008F938091D6008F9380917E
S1130790D5008F938091D4008F938091D3008F9351
S11307A08091D2008F938091D1008F938091D0005B
S11307B08F938FEA90E09F938F93D4D22091D900A6
S11307C03091DA004091DB005091DC006091DD0053
S11307D07091DE008091DF009091E000A090D00045
S11307E0B090D100C090D200D090D300E090D4005B
S11307F0F090D5000091D6001091D7009ED29F931F
S11308008F937F936F935F934F933F932F9387ECD3
S113081090E09F938F93A6D22091D9003091DA0073
S11308204091DB005091DC006091DD007091DE00AE
S11308308091DF009091E000A090D000B090D100B2
S1130840C090D200D090D300E090D400F090D500B6
S11308500091D6001091D70070D2EDB7FEB77E9606
S11308600FB6F894FEBF0FBEEDBF2F3C37404105D5
S11308705105610571058105910509F070F48091B8
S1130880D800811104C082E08093D80009C083306D
S113089039F481E08093D80003C083E08093D800CA
S11308A01092D0001092D1001092D2001092D30076
S11308B01092D4001092D5001092D6001092D70056
S11308C0FF91EF91BF91AF919F918F917F916F9124
S11308D05F914F913F912F911F910F91FF90EF9056
S11308E0DF90CF90BF90AF900F900FBE0F901F90EE
S11308F018955058BB27AA270ED008C1F9D030F05C
S1130900FED020F031F49F3F11F41EF4EEC00EF43B
S1130910E095E7FBE4C0E92F0AD180F3BA17620738
S113092073078407950718F071F49EF522C10EF43D
S1130930E0950B2EBA2FA02D0B01B90190010C01EB
S1130940CA01A0011124FF27591B99F0593F50F403
S1130950503E68F11A16F040A22F232F342F44275B
S1130960585FF3CF469537952795A795F040539553
S1130970C9F77EF41F16BA0B620B730B840BBAF023
S11309809150A1F0FF0FBB1F661F771F881FC2F78E
S11309900EC0BA0F621F731F841F48F487957795A2
S11309A06795B795F7959E3F08F0B3CF9395880F59
S11309B008F09927EE0F9795879508956CD008F461
S11309C081E00895BCD088F09F5790F0B92F992703
S11309D0B751A0F0D1F0660F771F881F991F1AF046
S11309E0BA95C9F712C0B13081F0C3D0B1E008950F
S11309F0C0C0672F782F8827B85F39F0B93FCCF390
S1130A00869577956795B395D9F73EF4909580953B
S1130A10709561957F4F8F4F9F4F0895E89409C05B
S1130A2097FB3EF490958095709561957F4F8F4F1D
S1130A309F4F9923A9F0F92F96E9BB279395F69533
S1130A40879577956795B795F111F8CFFAF4BB0FB1
S1130A5011F460FF1BC06F5F7F4F8F4F9F4F16C015
S1130A60882311F096E911C0772321F09EE8872F9F
S1130A70762F05C0662371F096E8862F70E060E05B
S1130A802AF09A95660F771F881FDAF7880F9695D4
S1130A90879597F90895990F0008550FAA0BE0E878
S1130AA0FEEF16161706E807F907C0F0121613062C
S1130AB0E407F50798F0621B730B840B950B39F46C
S1130AC00A2661F0232B242B252B21F408950A26D2
S1130AD009F4A140A6958FEF811D811D089597F912
S1130AE09F6780E870E060E008959FEF80EC0895D0
S1130AF000240A94161617061806090608950024F9
S1130B000A9412161306140605060895092E039472
S1130B10000C11F4882352F0BB0F40F4BF2B11F4E6
S1130B2060FF04C06F5F7F4F8F4F9F4F089557FD45
S1130B309058440F551F59F05F3F71F04795880F47
S1130B4097FB991F61F09F3F79F0879508951216DE
S1130B5013061406551FF2CF4695F1DF08C016168A
S1130B6017061806991FF1CF86957105610508943B
S1130B700895E894BB2766277727CB0197F9089552
S1130B808ADF08F48FEF08950BD0C0CFB1DF28F0CF
S1130B90B6DF18F0952309F0A2CFA7CF1124EACF2E
S1130BA0C6DFA0F3959FD1F3950F50E0551F629FC8
S1130BB0F001729FBB27F00DB11D639FAA27F00DB2
S1130BC0B11DAA1F649F6627B00DA11D661F829FD9
S1130BD02227B00DA11D621F739FB00DA11D621FBE
S1130BE0839FA00D611D221F749F3327A00D611DDB
S1130BF0231F849F600D211D822F762F6A2F1124BD
S1130C009F5750408AF0E1F088234AF0EE0FFF1F0F
S1130C10BB1F661F771F881F91505040A9F79E3F46
S1130C20510570F05CCFA6CF5F3FECF3983EDCF348
S1130C30869577956795B795F795E7959F5FC1F783
S1130C40FE2B880F911D9695879597F908956894C2
S1130C5001C0E8948F929F92CF93DF9305D0DF91E8
S1130C60CF919F908F90089588249924F401E401F2
S1130C70B0E41B2ED4019D158E049F04E007F107F8
S1130C8038F4FC014B01CA01B901AD019E0116946F
S1130C90220F331F441F551F661F771F881F991F7C
S1130CA0881C991CEE1FFF1FCC1FDD1FAA1FBB1F32
S1130CB08A149B04EC05FD05CE05DF05A007B107EA
S1130CC048F08A189B08EC09FD09CE09DF09A00B3E
S1130CD0B10B21601A94E1F62EF49401AF01BE0128
S1130CE0CD01000C089597FB10F8169400080F939B
S1130CF0083098F00850232F342F452F562F672F94
S1130D00782F892F902DF4CF059497958795779513
S1130D10679557954795379527950A95AAF70F91A3
S1130D2008950024A7FD00942A0F301D401D501D76
S1130D30601D701D801D901D08952A193B094C09E2
S1130D405D096E097F09800B910B08950024A7FDAE
S1130D5000942A173005400550056005700580058C
S1130D6090050895A0E0B0E0E7EBF6E0BDC2AE0167
S1130D704B5F5F4FFA0161917191AF0180916C01FA
S1130D8090916D0132D0E2E0CBC20F931F93CF93C9
S1130D90DF93E0916C01F0916D01238121FF1BC071
S1130DA08C01D0E0C0E0F80181918F0160916C0169
S1130DB070916D01DB011896ED91FC9119978823D0
S1130DC031F00995892B79F3DFEFCFEFECCF8AE08F
S1130DD00995892B19F08FEF9FEF02C08D2F9C2F5F
S1130DE0DF91CF911F910F910895ACE0B0E0EAEF4D
S1130DF0F6E06AC27C016B018A01FC01178216824B
S1130E00838181FFB0C1CE0101964C01F70193812A
S1130E10F60193FD859193FF81916F01882309F475
S1130E209EC1853239F493FD859193FF81916F01C1
S1130E30853221F4B70190E0B1D1E8CF512C312CA7
S1130E4020E02032A0F48B3269F030F4803259F083
S1130E50833269F420612CC08D3239F0803339F447
S1130E60216026C02260246023C0286021C027FDA1
S1130E7027C030ED380F3A3078F426FF06C0FAE088
S1130E805F9E300D1124532E13C08AE0389E300D1E
S1130E901124332E20620CC08E3221F426FD5FC152
S1130EA0206406C08C3611F4206802C0883641F4F0
S1130EB0F60193FD859193FF81916F018111C1CF5B
S1130EC0982F9F7D9554933028F40C5F1F4FFFE3B8
S1130ED0F9830DC0833631F0833771F0833509F01F
S1130EE057C021C0F801808189830E5F1F4F4424BD
S1130EF04394512C540114C03801F2E06F0E711C5C
S1130F00F801A080B18026FF03C0652D70E002C007
S1130F106FEF7FEFC5012C8736D12C0183012C851F
S1130F202F77222E16C03801F2E06F0E711CF801E3
S1130F30A080B18026FF03C0652D70E002C06FEF72
S1130F407FEFC5012C8714D12C012C852068222E1B
S1130F50830123FC19C0832D90E048165906A0F4A0
S1130F60B70180E290E01AD13A94F5CFF50127FC5D
S1130F70859127FE81915F01B70190E00FD1311077
S1130F803A94F1E04F1A51084114510479F7DEC044
S1130F90843611F0893631F5F80127FF07C06081E6
S1130FA07181828193810C5F1F4F08C060817181C0
S1130FB0072E000C880B990B0E5F1F4F2F76722E95
S1130FC097FF09C090958095709561957F4F8F4FDD
S1130FD09F4F2068722E2AE030E0A40117D1A82E7A
S1130FE0A81843C0853729F42F7EB22E2AE030E0BA
S1130FF025C0F22FF97FBF2E8F36C1F018F4883543
S113100079F0ADC0803719F0883721F0A8C02F2FB0
S11310102061B22EB4FE0DC08B2D8460B82E09C0A1
S113102024FF0AC09F2F9660B92E06C028E030E046
S113103005C020E130E002C020E132E0F801B7FE53
S113104007C060817181828193810C5F1F4F06C04C
S11310506081718180E090E00E5F1F4FA401D6D0C3
S1131060A82EA818FB2DFF777F2E76FE0BC0372DF8
S11310703E7FA51450F474FE0AC072FC08C0372DDC
S11310803E7E05C0BA2C372D03C0BA2C01C0B52C46
S113109034FF0DC0FE01EA0DF11D8081803311F48F
S11310A0397E09C032FF06C0B394B39404C0832FC1
S11310B0867809F0B39433FD12C030FF06C05A2C71
S11310C0B31418F4530C5B18B32CB31460F4B701C5
S11310D080E290E03C8762D0B3943C85F6CFB314B1
S11310E010F43B1801C0312C34FF11C0B70180E368
S11310F090E03C8753D03C8532FF16C031FD03C0DD
S113110088E790E002C088E590E0B7010CC0832F27
S1131110867851F031FF02C08BE201C080E237FDD6
S11311208DE2B70190E03AD0A51430F4B70180E322
S113113090E034D05A94F8CFAA94F401EA0DF11D4A
S11311408081B70190E02AD0A110F6CF332009F4B2
S11311505DCEB70180E290E021D03A94F7CFF70159
S11311608681978102C08FEF9FEF2C96E2E1C8C081
S1131170FC010590615070400110D8F7809590955E
S11311808E0F9F1F0895FC01615070400190011063
S1131190D8F7809590958E0F9F1F08950F931F93F6
S11311A0CF93DF93FB01238121FD03C08FEF9FEFDA
S11311B028C022FF16C046815781248135814217F9
S11311C0530744F4A081B1819D012F5F3F4F3183C8
S11311D020838C93268137812F5F3F4F378326836B
S11311E010C0EB01092F182F0084F185E02D09951B
S11311F0892BE1F68E819F8101969F838E83812FB7
S1131200902FDF91CF911F910F910895FA01AA2792
S1131210283051F1203181F1E8946F936E7F6E5F35
S11312207F4F8F4F9F4FAF4FB1E03ED0B4E03CD0E3
S1131230670F781F891F9A1FA11D680F791F8A1FC6
S1131240911DA11D6A0F711D811D911DA11D20D02D
S113125009F468943F912AE0269F11243019305DE7
S11312603193DEF6CF010895462F4770405D4193D8
S1131270B3E00FD0C9F7F6CF462F4F70405D4A3325
S113128018F0495D31FD4052419302D0A9F7EACFED
S1131290B4E0A6959795879577956795BA95C9F71C
S11312A000976105710508959B01AC010A2E06940F
S11312B05795479537952795BA95C9F7620F731FC8
S11312C0841F951FA01D08952F923F924F925F9205
S11312D06F927F928F929F92AF92BF92CF92DF9242
S11312E0EF92FF920F931F93CF93DF93CDB7DEB7A7
S11312F0CA1BDB0B0FB6F894DEBF0FBECDBF09943B
S11313002A88398848885F846E847D848C849B8491
S1131310AA84B984C884DF80EE80FD800C811B819F
S1131320AA81B981CE0FD11D0FB6F894DEBF0FBECE
S10D1330CDBFED010895F894FFCF3E
S113133A00000002000000002F000000000000006E
S113134A803F48656C6C6F20576F726C6421004E45
S113135A6577204272696768746E657373202569BC
S113136A0A00526973696E672061742025640A0051
S113137A46616C6C696E672061742025640A0053A7
S113138A746172746564207072657373696E672020
S113139A61742025640A00646966662025640A006B
S9030000FC
